:020000040800F2
:1000000058C10024A503000891970008E58D000859
:100010008D970008510D000809D500080000000068
:10002000000000000000000000000000E5020008E1
:10003000451400080000000041030008099F000863
:10004000BF030008BF030008BF030008BF03000888
:10005000BF030008BF030008BF030008BF03000878
:10006000BF030008BF030008BF030008290E0008F3
:10007000390E0008490E0008590E0008690E0008E4
:10008000790E0008890E0008BF0300084D1400080F
:100090005D140008BF030008BF030008BF03000889
:1000A000BF030008EDA00008BF030008BF0300085D
:1000B000FDA00008BF030008BF030008BF0300083D
:1000C000BF030008BF030008BF0300086D9D0008C0
:1000D000BF030008EDB0000801B1000815B1000829
:1000E000BF030008BF03000800000000BF030008B2
:1000F000BF030008BF030008BF030008990E0008F3
:10010000BF030008BF030008BF030008BF030008C7
:10011000BF030008BF030008BF030008BF030008B7
:10012000A90E0008B90E0008C90E0008BF03000898
:10013000BF030008BF030008BF030008BF03000897
:1001400000000000000000000000000000000000AF
:10015000BF030008BF030008BF03000829B100085F
:10016000BF030008BF030008A9970008999700087B
:10017000BF030008B9970008BF0300080000000093
:10018000BF030008BF030008BF030008BF03000847
:10019000BF030008BF030008BF030008BF03000837
:1001A000BF030008BF030008BF03000800000000F1
:1001B000BF030008BF030008BF030008BF03000817
:1001C000BF030008BF03000800000000000000009B
:1001D0000000000000000000BF0300080000000055
:1001E000000000000000000000000000000000000F
:1001F0000000000000000000BF030008BF0300086B
:10020000BF030008BF03000800000000BF03000890
:10021000BF030008BF030008BF030008BF030008B6
:10022000BF03000800000000BF030008000000003A
:10023000BF030008BF03000800000000BF03000860
:10024000BF030008BF030008BF030008BF03000886
:10025000BF030008BF030008BF030008BF03000876
:10026000BF030008BF030008BF030008BF03000866
:10027000BF030008BF030008BF0300080000000020
:10028000BF030008BF030008BF030008BF03000846
:1002900000000000BF030008BF03000800000000CA
:1002A00000000000BF030008BF030008BF030008F0
:1002B000D9B00008BF030008BF0300086D14000890
:1002C000BF030008BF030008BF030008DFF810D019
:1002D00000F020F9004800477D390108AFF30080A5
:1002E00058C100242C4B19680868B0E8F04F80F31F
:1002F0000988BFF36F8F4FF0000080F311887047BB
:100300000000000008480068006880F308884FF08B
:10031000000080F3148862B661B6BFF34F8FBFF35D
:100320006F8F00DF00BF00BF08ED00E0DFF80C00BA
:10033000016841F470010160704700BF88ED00E082
:10034000EFF30980BFF36F8F134B1A681EF0100F85
:1003500008BF20ED108A20E9F04F106009B44FF07B
:10036000500080F31188BFF34F8FBFF36F8F16F0EB
:1003700085F94FF0000080F3118809BC19680868FE
:10038000B0E8F04F1EF0100F08BFB0EC108A80F3F9
:100390000988BFF36F8F704770060024EFF3058064
:1003A000704700000648804706480047FEE7FEE722
:1003B000FEE7FEE7FEE7FEE7FEE7FEE7FEE7FEE715
:1003C00005A00008CD0200082DE9F05F05460020D9
:1003D00092469B4688460646814640241BE02846B6
:1003E00041464746224600F05AF853465A46C01A3C
:1003F000914110D311461846224600F041F82D1ABB
:1004000067EB01084F4622460120002100F038F832
:1004100017EB00094E41201EA4F10104DFDC484621
:1004200031462A464346BDE8F09F40EA01039B0758
:1004300003D009E008C9121F08C0042AFAD203E059
:1004400011F8013B00F8013B521EF9D27047D2B2BD
:1004500001E000F8012B491EFBD270470022F6E7AD
:1004600010B513460A4604461946FFF7F0FF20462A
:1004700010BD421C10F8011B0029FBD1801A7047E7
:10048000202A04DB203A00FA02F100207047914054
:10049000C2F1200320FA03F3194390407047202A49
:1004A00004DB203A21FA02F00021704721FA02F31E
:1004B000D040C2F120029140084319467047F0B481
:1004C00000F0004221F0004120F00040CE0DC30DAD
:1004D000C1F3160141F40001C0F316004C42154669
:1004E00040F40000761E09E010EB440002D582F0D3
:1004F000004240428842F7D840005B1EB342F9DA1E
:1005000018B1F0BC002100F020B82846F0BC7047BC
:1005100000207047064C074D06E0E06840F00103FC
:1005200094E8070098471034AC42F6D3FFF7D2FEA8
:1005300074AF010894AF01080029A8BF7047401CA0
:10054000490008BF20F00100704710B4B0FA80FCE9
:1005500000FA0CF050EA010404BF10BC704749B126
:10056000CCF1200421FA04F411FA0CF118BF012196
:1005700021430843A3EB0C01CB1D4FEA00614FEA76
:10058000102042BF002010BC704700EBC350104445
:100590000029A4BF10BC7047401C490008BF20F0D0
:1005A000010010BC704770B58C1810F8015B15F095
:1005B000070301D110F8013B2A1106D110F8012BD5
:1005C00003E010F8016B01F8016B5B1EF9D12B07FA
:1005D00005D40023521E0DD401F8013BFAE710F8B0
:1005E000013BCB1A921C03E013F8015B01F8015B9D
:1005F000521EF9D5A142D8D3002070BD9FED201A1C
:10060000B5EE002A00EE012A9FED1E1ABDEEC20AC9
:10061000B5EEC02AF1EE10FA10EE100AB8BF01389C
:1006200000EE100A0020B8EEC00A32EE400A9FED3C
:10063000162A20EE010ABCEEC01A11EE101A30EE96
:10064000021AB0EB512F18BF002102EE101A4AF225
:10065000707000FE010AC0F60100B8EE422A00EBFD
:10066000810090ED011A30EE420AB7EE002A32EE18
:10067000402A20EE010A90ED001A02EE010A7047AE
:1006800083F9223E00000044000000C4B0B5038896
:100690000D88AB4256D145884C88A54252D114886A
:1006A000A3424FD15488A5424CD105FB03FC4368BB
:1006B00000254968B5EB9C0F506831D04FEA9C0289
:1006C000524200BF93ED000A91ED001A30EE010A8C
:1006D00003F1100E01F1100400F1100580ED000A85
:1006E000013293ED010A91ED011A30EE010A80ED1D
:1006F000010A93ED020A91ED021A30EE010A80ED33
:10070000020A93ED030A91ED031A30EE010A7346D3
:10071000214680ED030A2846D4D121462846734657
:100720001CF003020CD05242B3EC010AB1EC011AE6
:1007300030EE010A051D013280ED000A2846F3D192
:10074000002000E0FD2040B2B0BD01804280436047
:10075000704700002DE9F04F8BB0B0F800B0B0F852
:1007600002E0F34540F051810B88FD229B4540F0AB
:100770004D814F88BB4240F04981BBF1000F436877
:1007800000F029816FF003004C6800EB8B08CDF876
:100790001CE0002700934FF07E5906945E462046E9
:1007A000BBEB060009D0B9002046FFF757FE00203A
:1007B0000130874204F10404FAD104F1040AC4F8B8
:1007C0000090751E10D0A8EB87015046FFF746FE3B
:1007D000012054460130864204F10404FAD1002D70
:1007E00007F101072E46DBD1BBF1000F009BDDF8BE
:1007F0001CE000F0F0800420CDF814B000EB8E0077
:1008000001901846ABF1010603EB8E044FEA8E020D
:100810001D1DCEF10001002308919FED800A77464F
:10082000814600BF5B4580F0F58003FB0EF0B0EE23
:10083000403A09EB80010A9191ED001A0699B0EE59
:10084000414A01EB800009902146304606E000BF96
:1008500091ED004A0138B0EE423A1144B5EEC04A7B
:10086000F1EE10FA0ADDB4EEC34AB0EE442AF1EE1E
:1008700010FAD8BFB0EE432A09E000BFB1EE442A17
:10088000B4EEC23AF1EE10FA01DBB0EE432A0028D2
:10089000DED1B5EE402AF1EE10FA00F0BB80B0EEEA
:1008A000C13AB4EE423AF1EE10FA1CBFD84310EB55
:1008B0000B0004D0002000BF01308642FCD1B5EE11
:1008C000401AF1EE10FA00F0A580CDE90346AEEB38
:1008D000030C0A99BCF1010F4FF07E5008600AD05A
:1008E0000120294691ED002A82EE012A013087423B
:1008F000A1EC012AF6D1DDE9080100BF91ED002A43
:1009000082EE012A0C1D013081ED002A2146F5D12D
:10091000ACF1010B05994FF00008DDF818A048462E
:10092000CDF80890984505D100EB8C060AEB8E0AAD
:1009300033E000BF90ED001A0A9CB0EE413ABBF1E3
:10094000000F94ED002A01EE423A00F1040680ED1A
:10095000003A15D00120002406EB040905EB040E33
:1009600099ED002A9EED003A01EE432A01308742BC
:1009700004F1040489ED002AEED12644DDF81CE0E0
:10098000DDE908049AED002A94ED003A01EE432ACD
:1009900004340130AAEC012AF4D106EB83000139BA
:1009A00008F10108BED1DDF80890013F049E09F16D
:1009B0000409039C03F101030198A6F10106044414
:1009C000DDF814B005447FF42DAFB5EE401A009B5E
:1009D000F1EE10FA20D10EFB0BF1002000294FF0B0
:1009E00000020BD093ED000AB5EE400AF1EE10FACA
:1009F00004D101328A4203F10403F3D38A4208BFCF
:100A00006FF004000BB0BDE8F08FFD2250B20BB0C8
:100A1000BDE8F08FFB22F9E70022F7E700000000B5
:100A20002DE9F04F88B0B0F802C00B889C4540F02B
:100A30008880B0F800E013889E4540F08280B1F8CD
:100A40000290538899457CD14FEA9C04476804FB87
:100A500009F049680CF00305029101EB00100190C8
:100A600000202CF00303A0EB9C0107EB8306079109
:100A70004FEA89035168C5F1000A00919FED330ADE
:100A8000CDE9039CCDE9050E0099CE4601EB800827
:100A9000DDE901BC002CB0EE401AE146384627D013
:100AA000624607993846B0EE401A00BF92ED002A20
:100AB00090ED003A03EE021A1A4490ED014A92EDCD
:100AC000002A04EE021A1A4490ED025A92ED002A0E
:100AD00005EE021A1A4490ED036A92ED002A06EE22
:100AE000021A013100F110001A44DFD1D946304614
:100AF00055B1514690ED002A99ED003A02EE031AE5
:100B0000043001319944F5D108F1040088ED001A50
:100B1000BEF1010E0CF1040C0BF1040B8046B9D1AF
:100B2000DDF80C900598DDF810C04844DDF818E0B9
:100B300007EB8C07BEF1010E06EB8C06A2D100205C
:100B400000E0FD2040B208B0BDE8F08F00000000DA
:100B5000B0B503880D88AB4256D145884C88A54274
:100B600052D11488A3424FD15488A5424CD105FBE1
:100B700003FC436800254968B5EB9C0F506831D0F1
:100B80004FEA9C02524200BF93ED000A91ED001A19
:100B900030EE410A03F1100E01F1100400F11005CE
:100BA00080ED000A013293ED010A91ED011A30EE59
:100BB000410A80ED010A93ED020A91ED021A30EE2E
:100BC000410A80ED020A93ED030A91ED031A30EE1B
:100BD000410A7346214680ED030A2846D4D12146B6
:100BE000284673461CF003020CD05242B3EC010AB3
:100BF000B1EC011A30EE410A051D013280ED000A08
:100C00002846F3D1002000E0FD2040B2B0BD000036
:100C10002DE9F04F83B002884B889A424DD1448829
:100C20000B889C4249D10023D1F804804FEA940CF0
:100C3000416804F0030ECDF80080A3EB9404029405
:100C4000140196000194CEF1000B4046BCF1000F58
:100C50001ED04746029C00BF08683D4638603744B6
:100C6000486807EB0609A85101F11000D1F808A067
:100C7000013447F806A009EB0607C968374449F86C
:100C800006100146E8D101996C18014603E000BF47
:100C9000009800EB8304BEF1000F07D05D4600BF53
:100CA00051F8040B013520603444F9D10133013A85
:100CB00008F10408CAD1002000E0FD2040B203B0D2
:100CC000BDE8F08F9FED1F1A20EE010A9FED1F2A4D
:100CD000BDEEC01AB5EEC00AF1EE10FA11EE100A20
:100CE000B8BF013801EE100A0020B8EEC11A30EE8C
:100CF000410A9FED151A20EE010ABCEEC01A11EE52
:100D0000101A30EE021AB0EB512F18BF002102EE7C
:100D1000101A4AF2707000FE010AC0F60100B8EE27
:100D2000422A00EB810090ED011A30EE420AB7EE44
:100D3000002A32EE402A20EE010A90ED001A02EE5F
:100D4000010A704783F9223E00000044000000C4FD
:100D500000BFFEE70346042B15D007DC7BB1012B57
:100D60000ED0022B0DD0032B12D10BE0202B0BD079
:100D7000212B0AD0222B09D0232B09D107E008E030
:100D800007E006E005E004E003E002E001E000E047
:100D900000BF00BF002070470020704710B5002240
:100DA000044905480AF024FB044903480AF015FBEE
:100DB000002010BD6C2700249C1A00246C1F002406
:100DC00070B504460D46214605480AF006FB044866
:100DD0000AF0DEFA204615F097FC002070BD0000F6
:100DE0009C1A002410B503460C460021084610BD8D
:100DF0002DE9F04104460D4600260A48D0F8BC72A1
:100E0000D7F8140210B10120BDE8F0812A4621462E
:100E100004480AF0EDFA03480AF086FB064630461D
:100E2000F2E700009C1A002410B5024801F050F9C6
:100E300010BD00009016002410B5024801F048F9DA
:100E400010BD00000817002410B5024801F040F959
:100E500010BD0000A015002410B5024801F038F9BB
:100E600010BD00001816002410B5024801F030F93A
:100E700010BD00007018002410B5024801F028F9D8
:100E800010BD00008017002410B5024801F020F9C1
:100E900010BD0000F817002410B5024801F018F941
:100EA00010BD0000E818002410B5024801F010F948
:100EB00010BD00006019002410B5024801F008F9C7
:100EC00010BD0000D819002410B5024801F000F947
:100ED00010BD0000301100240146374A08689042D6
:100EE00049D0354A18320868904244D0324A3032EC
:100EF000086890423FD0304A4832086890423AD061
:100F00002D4A60320868904235D02B4A7832086802
:100F1000904230D0284A9032086890422BD0264A1E
:100F2000A8320868904226D0244A0868904222D00D
:100F3000224A1832086890421DD0204A3032086890
:100F4000904218D01D4A48320868904213D01B4A7C
:100F50006032086890420ED0184A78320868904291
:100F600009D0164A90320868904204D0134AA83239
:100F70000868904201D1012000E00020B0B10A7859
:100F8000103A1823B2FBF3F000F007020C4B9A5C06
:100F9000CA65032805D90A686FF30902121D8A651C
:100FA00003E00A686FF309028A6503E0086820F02D
:100FB000FF008865886D70471000024010040240F1
:100FC000ECA4010810B502682B4C0368A34222D0A0
:100FD000294C14340368A3421DD0274C28340368DD
:100FE000A34218D0244C3C340368A34213D0224CB3
:100FF00050340368A3420ED01F4C64340368A342EC
:1010000009D01D4C78340368A34204D01A4C8C34A8
:101010000368A34201D1012300E000238BB10378D0
:10102000083B1424B3FBF4F1144B03EB8103036678
:10103000124B8033436601F01F040123A3408366F3
:1010400018E00378103B1824B3FBF4F10C4B9A42E0
:1010500004D80B4BA83B9A4200D30831094B03EB51
:1010600081030366074B8033436601F01F040123AD
:10107000A340836610BD000008540258005802586F
:10108000B8040240000802400179A9B3082940D8F9
:10109000204B02689A4222D01E4B143302689A42B7
:1010A0001DD01C4B283302689A4218D0194B3C3390
:1010B00002689A4213D0174B503302689A420ED0FE
:1010C000144B643302689A4209D0124B7833026899
:1010D0009A4204D00F4B8C3302689A4201D101220C
:1010E00000E000224AB14A1E0B4B03EB8202C266AB
:1010F000094A4032026708E00BE04A1E074B03EB47
:101100008202C266054A403202674A1E01239340AA
:1011100043677047085402580059025800090240BA
:10112000014600208A69D2B98A6A32B1012A0DD0FB
:10113000022A03D0032A10D10EE000BFCA6A02F0CF
:101140008072B2F1807F00D1012007E0CA6AB2F15B
:10115000C07F00D1012001E000E000BF36E08A69D5
:10116000B2F5005F1BD18A6A32B1012A07D0022A88
:1011700003D0032A11D10AE000BF01200EE0CA6AA1
:1011800002F08072B2F1807F00D1012006E0CA6ACD
:10119000B2F1C07F00D1012000E000BF16E08A6AF2
:1011A00032B1012A05D0022A04D0032A0CD103E06F
:1011B00000BF00BF012008E0CA6A02F08072B2F1ED
:1011C000807F00D1012000E000BF00BF7047000019
:1011D000F0B5856D846D984F0668BE4270D0964F0D
:1011E00018370668BE426BD0934F30370668BE4250
:1011F00066D0914F48370668BE4261D08E4F603747
:101200000668BE425CD08C4F78370668BE4257D025
:10121000894F90370668BE4252D0874FA83706687C
:10122000BE424DD0854F0668BE4249D0834F183725
:101230000668BE4244D0814F30370668BE423FD078
:101240007E4F48370668BE423AD07C4F603706680A
:10125000BE4235D0794F78370668BE4230D0774FDE
:1012600090370668BE422BD0744FA8370668BE423E
:1012700026D0734F0668BE4222D0714F14370668DD
:10128000BE421DD06E4F28370668BE4218D06C4F44
:101290003C370668BE4213D0694F50370668BE42DD
:1012A0000ED0674F64370668BE4209D0644F783766
:1012B0000668BE4204D0624F8C370668BE4201D138
:1012C000012600E000263EB1D0E919767E60C66EA8
:1012D00016B1D0E91C767E60574F0668BE4249D0F1
:1012E000554F18370668BE4244D0534F3037066812
:1012F000BE423FD0504F48370668BE423AD04E4FAC
:1013000060370668BE4235D04B4F78370668BE421C
:1013100030D0494F90370668BE422BD0464FA83791
:101320000668BE4226D0454F0668BE4222D0434FD3
:1013300018370668BE421DD0404F30370668BE429F
:1013400018D03E4F48370668BE4213D03B4F603737
:101350000668BE420ED0394F78370668BE4209D0C3
:10136000364F90370668BE4204D0344FA83706681F
:10137000BE4201D1012600E00026DEB190F85C609B
:1013800006F01F073F26BE40AE600668366826F4AA
:10139000802607683E60066873608668402E04D128
:1013A0000668B2600668F16044E00668B1600668ED
:1013B000F2603FE0224F0668BE4222D0204F143731
:1013C0000668BE421DD01E4F28370668BE4218D0A0
:1013D0001B4F3C370668BE4213D0194F5037066882
:1013E000BE420ED0164F64370668BE4209D0144F75
:1013F00078370668BE4204D0114F8C370668BE426B
:1014000001D1012600E00026A6B190F85C6006F04C
:101410001F070126BE406660066873608668402E1E
:1014200004D10668B2600668F16003E00668B16046
:101430000668F260F0BD0000100002401004024097
:1014400008540258704772B600BFFEE710B5024854
:1014500002F052FA10BD0000B40E002410B502488C
:1014600002F04AFA10BD0000540F002410B50248E3
:1014700002F042FA10BD0000F40F002410B501463E
:101480004A6B0868D0F884004FF6FC74A04340EA29
:1014900082000C68C4F884000868D0F8840020F446
:1014A0007F04088F44EA00400C68C4F88400886B0D
:1014B00002440868D0F888004FF6FC74A04340EA64
:1014C00082000C68C4F888000868D0F8880020F40E
:1014D000FE04888F44EA00400C68C4F88800C86B9A
:1014E00002EB40020868D0F8A0004FF6FC74A0435D
:1014F00040EA82000C68C4F8A0000868D0F8A00098
:1015000020F4FE044020405A44EA00400C68C4F82D
:10151000A000D1E9104004FB00220868D0F8B00018
:101520004FF6FC74A04340EA82000C68C4F8B00097
:101530000868D0F8B00020F4FE04B1F8480044EA8E
:1015400000400C68C4F8B000D1E9124004FB00224E
:101550000868D0F8AC004FF6FC74A04340EA820063
:101560000C68C4F8AC00D1E9144004FB0022086800
:10157000D0F8F0004FF6FC74A04340EA82000C68FB
:10158000C4F8F0000868D0F8F00020F47C14B1F83A
:10159000580044EA00400C68C4F8F000886D02EB83
:1015A00040020868D0F8C0004FF6FC74A04340EA3F
:1015B00082000C68C4F8C0000868D0F8C00020F4AD
:1015C0007C14B1F85C0044EA00400C68C4F8C00028
:1015D0000868D0F8C00020F07C5491F8600044EA1C
:1015E00000600C68C4F8C0002A4C486B04EB800013
:1015F000C866CC6E886B04EB80040C670C6FC86BFC
:1016000004EBC0044C67D1E9100460434C6F04EB59
:1016100080048C67D1E9120460438C6F04EB800472
:10162000CC67D1E914046043CC6F04EB80048020C4
:1016300044504458886D04EBC004842044508C6EA0
:10164000C86D60438424645804EB800488204450AF
:101650008C6E086E60438824645804EB80049020EC
:10166000445040580C4CA04209D99831486840F089
:1016700020004860032001F89809012010BDCB6EBE
:1016800002E0002018601B1D902040589842F8D8B6
:101690000020F3E700AC0040FCD300402DE9F0410E
:1016A000054614461E46D1F804C0BCF1000F0AD10D
:1016B000D1F810C0D1F808804CEA080CB1F80080CD
:1016C0004CEA88430BE0D1F810C04CF0804CD1F8C4
:1016D00008804CEA080CD1F800804CEA080391F825
:1016E0002080D1F81CC04CEA086CD1F818804CEA74
:1016F000080CD1F814804CEA080CD1F80C804CEAA4
:101700000807D5F868C00CFB06FCD5F8848008EB08
:101710008C021360121D1760121D002019E000F1E9
:10172000030C14F80CC04FEA0C6800F1020C14F81A
:101730000CC048EA0C4800F1010C14F80CC048EA4F
:101740000C2C14F800804CEA080CC2F800C0121DE2
:10175000001DDFF81880D1F80CC008EB1C4C9CF879
:1017600000C08445DBD8BDE8F0810000F4A4010886
:1017700010B52DED028B04469FED280AB0EE408A8D
:1017800094ED010AD4ED020AB4EEE00AF1EE10FA8B
:1017900012D294ED040AD4ED050A30EE600A94EDFD
:1017A000021AC0EE010A94ED011A94ED050A00EE4A
:1017B000810AB0EE408A15E094ED050AD4ED040AE2
:1017C00030EE600A94ED031AC0EE010A94ED010AAE
:1017D00094ED021A30EE411A94ED040A00EE810AEB
:1017E000B0EE408A94ED021AD4ED031A31EE211ABC
:1017F000F0EE410A94ED011AD4ED001A31EE211AEF
:10180000B0EE410A0CF004FA84ED010A84ED068A78
:1018100094ED060ABDEC028B10BD00000000000034
:1018200070B50A480468001D0568001D0668344448
:1018300054B108220649204607F0D6FA042204498A
:101840001031284607F0D0FA70BD000000E8F11F03
:101850006E0000242DE9F041044602F033FE80467C
:1018600014B90120BDE8F08194F83500022808D0B1
:101870008020606500BF002084F8340000BF012094
:10188000F0E7FE492068884249D0FC4918312068B9
:10189000884244D0F9493031206888423FD0F74926
:1018A0004831206888423AD0F44960312068884243
:1018B00035D0F24978312068884230D0EF499031F4
:1018C000206888422BD0ED49A8312068884226D074
:1018D000EB492068884222D0E949183120688842C3
:1018E0001DD0E74930312068884218D0E44948319A
:1018F0002068884213D0E2496031206888420ED0C7
:10190000DF4978312068884209D0DD49903120686C
:10191000884204D0DA49A8312068884201D10120E8
:1019200000E0002068B12068006820F01E002168F7
:1019300008602068406920F08000216848612568BF
:1019400006E02068006820F00E0021680860256825
:10195000CA492068884270D0C84918312068884236
:101960006BD0C64930312068884266D0C3494831BF
:101970002068884261D0C1496031206888425CD0CB
:10198000BE4978312068884257D0BC4990312068E0
:10199000884252D0B949A831206888424DD0B84910
:1019A0002068884249D0B64918312068884244D01E
:1019B000B3493031206888423FD0B149483120686E
:1019C00088423AD0AE4960312068884235D0AC496F
:1019D00078312068884230D0A94990312068884207
:1019E0002BD0A749A8312068884226D0A549206875
:1019F000884222D0A3491431206888421DD0A149D1
:101A000028312068884218D09E493C31206888429D
:101A100013D09C495031206888420ED099496431D6
:101A20002068884209D0974978312068884204D0DC
:101A300094498C312068884201D1012000E00020C7
:101A400028B1206E006820F48070216E08608B49F8
:101A50002068884249D0894918312068884244D09A
:101A600086493031206888423FD084494831206817
:101A700088423AD0814960312068884235D07F4918
:101A800078312068884230D07C4990312068884283
:101A90002BD07A49A8312068884226D0784920681E
:101AA000884222D076491831206888421DD0744976
:101AB00030312068884218D0714948312068884206
:101AC00013D06F496031206888420ED06C4978315C
:101AD0002068884209D06A4990312068884204D041
:101AE0006749A8312068884206D12068006820F044
:101AF00001002168086005E02068006820F001000E
:101B00002168086011E002F0DDFCA0EB0800052868
:101B10000BD92020606500BF002084F8340000BF8E
:101B2000032084F8350001209CE6286800F00100BD
:101B30000028E8D151492068884249D04F491831DE
:101B40002068884244D04D493031206888423FD0D7
:101B50004A494831206888423AD048496031206873
:101B6000884235D0454978312068884230D0434991
:101B70009031206888422BD04049A83120688842A3
:101B800026D03F492068884222D03D49183120683C
:101B900088421DD03A4930312068884218D03849EF
:101BA00048312068884213D0354960312068884226
:101BB0000ED0334978312068884209D030499031BD
:101BC0002068884204D02E49A8312068884201D17B
:101BD000012000E0002040B1A66D94F85C0000F008
:101BE0001F013F208840B06007E0A76D94F85C00BB
:101BF00000F01F0101208840786020492068884259
:101C000076D01E4918312068884271D01B49303186
:101C1000206888426CD0194948312068884267D0D2
:101C2000164960312068884262D0144978312068B2
:101C300088425DD0114990312068884258D00F49C0
:101C4000A8312068884253D00D49206888424FD07F
:101C50000B491831206888424AD009493031206840
:101C6000884245D0064948312068884240D004491E
:101C70006031206888423BD0014905E010000240F5
:101C800010040240085402587831206888422FD04E
:101C90002549206888422BD0234918312068884282
:101CA00026D022492068884222D020491431206859
:101CB00088421DD01D4928312068884218D01B4910
:101CC0003C312068884213D018495031206888423E
:101CD0000ED0164964312068884209D01349783102
:101CE0002068884204D011498C312068884201D193
:101CF000012000E0002068B1D4E919104860E06ECE
:101D000040B1E06E006820F48070E16E0860D4E9B4
:101D10001C10486000BF002084F8340000BF012080
:101D200084F8350000209DE5A004024008540258C4
:101D300070B504460CB9012070BD94F83500022836
:101D400003D0802060650120F6E7DC4920688842E6
:101D500049D0DA4918312068884244D0D749303117
:101D6000206888423FD0D5494831206888423AD01F
:101D7000D24960312068884235D0D0497831206816
:101D8000884230D0CD499031206888422BD0CB4951
:101D9000A8312068884226D0C9492068884222D0CC
:101DA000C7491831206888421DD0C54930312068A4
:101DB000884218D0C24948312068884213D0C049AF
:101DC0006031206888420ED0BD4978312068884251
:101DD00009D0BB4990312068884204D0B849A83165
:101DE0002068884201D1012000E00020F0B30420E7
:101DF00084F83500B149206888424BD0AF4918318A
:101E00002068884246D0AD4930312068884241D0B0
:101E1000AA494831206888423CD0A84960312068EE
:101E2000884237D0A54978312068884232D0A3490A
:101E30009031206888422DD0A049A831206888427E
:101E400028D09F492068884224D09D4918312068B5
:101E500088421FD09A493031206888421AD0984968
:101E600048312068884215D0954900E020E0603173
:101E7000206888420ED0924978312068884209D083
:101E80008F4990312068884204D08D49A83120685C
:101E9000884206D12068006820F0010021680860AF
:101EA00009E12068006820F001002168086002E173
:101EB0002068006820F00E00216808607F492068D3
:101EC000884249D07D4918312068884244D07B49F6
:101ED0003031206888423FD07849483120688842B4
:101EE0003AD0764960312068884235D073497831DC
:101EF0002068884230D071499031206888422BD0C8
:101F00006E49A8312068884226D06D4920688842F1
:101F100022D06B491831206888421DD06849303181
:101F20002068884218D0664948312068884213D01A
:101F300063496031206888420ED061497831206859
:101F4000884209D05E4990312068884204D05C49BB
:101F5000A8312068884206D12068006820F001007E
:101F60002168086005E02068006820F00100216811
:101F7000086052492068884270D050491831206862
:101F800088426BD04D4930312068884266D04B4939
:101F900048312068884261D04849603120688842D1
:101FA0005CD0464978312068884257D04349903107
:101FB0002068884252D04149A831206888424DD0DB
:101FC0003F492068884249D03D49183120688842FD
:101FD00044D03B493031206888423FD038494831AD
:101FE000206888423AD0364960312068884235D02E
:101FF000334978312068884230D0314990312068A7
:1020000088422BD02E49A8312068884226D02D49FD
:102010002068884222D02B491431206888421DD084
:10202000284928312068884218D026493C31206848
:10203000884213D023495031206888420ED021496C
:1020400064312068884209D01E497831206888426E
:1020500004D01C498C312068884201D1012000E065
:102060000020D8B1206E006820F48070216E0860D6
:10207000A56D94F85C0000F01F01012088406860A5
:10208000D4E919104860E06E40B1E06E006820F4B9
:102090008070E16E0860D4E91C10486000BF002029
:1020A00084F8340000BF012084F83500206D10B1A1
:1020B0002046216D884700203EE6000010000240C7
:1020C00010040240085402580146486D7047000051
:1020D0002DE9F84F044600200090FE4800684FF4B8
:1020E0001651B0FBF1FAA66DD4F858803768D8F8CD
:1020F0000090F9492068884249D0F7491831206892
:10210000884244D0F4493031206888423FD0F249B7
:102110004831206888423AD0EF49603120688842CF
:1021200035D0ED4978312068884230D0EA49903185
:10213000206888422BD0E849A8312068884226D000
:10214000E6492068884222D0E44918312068884254
:102150001DD0E24930312068884218D0DF4948312B
:102160002068884213D0DD496031206888420ED053
:10217000DA4978312068884209D0D84990312068FE
:10218000884204D0D549A8312068884201D1012075
:1021900000E0002000287DD094F85C0000F01F01D2
:1021A000082088403840002868D0CB492068884201
:1021B00049D0C94918312068884244D0C6493031D5
:1021C000206888423FD0C4494831206888423AD0CC
:1021D000C14960312068884235D0BF4978312068D4
:1021E000884230D0BC499031206888422BD0BA490F
:1021F000A8312068884226D0B8492068884222D079
:10220000B6491831206888421DD0B4493031206861
:10221000884218D0B14948312068884213D0AF496C
:102220006031206888420ED0AC49783120688842FD
:1022300009D0AA4990312068884204D0A749A83122
:102240002068884204D12068006800F0040003E0A0
:102250002068006800F0080080B12068006820F065
:1022600004002168086094F85C0000F01F01082059
:102270008840B060606D40F00100606594F85C00DB
:1022800000F01F01012088403840E8B392492068DF
:10229000884200E0B8E24BD08F491831206888426C
:1022A00046D08D4930312068884241D08A49483132
:1022B000206888423CD0884960312068884237D005
:1022C000854978312068884232D08349903120682E
:1022D00088422DD08049A8312068884228D07F4983
:1022E0002068884224D07D491831206888421FD058
:1022F0007A493031206888421AD0784948312068BC
:10230000884215D0754900E026E060312068884297
:102310000ED0724978312068884209D06F499031D7
:102320002068884204D06D49A8312068884204D1D1
:102330002068406900F0800002E02068006800200A
:1023400050B194F85C0000F01F0101208840B0609B
:10235000606D40F00200606594F85C0000F01F01C1
:10236000042088403840E8B35B49206888424BD05D
:10237000594918312068884246D057493031206881
:10238000884241D054494831206888423CD0524963
:1023900060312068884237D04F49783120688842C0
:1023A00032D04D499031206888422DD04A49A83119
:1023B0002068884228D049492068884224D047496B
:1023C0001831206888421FD0444930312068884243
:1023D0001AD0424948312068884215D03F496031BF
:1023E000206800E024E088420ED03C497831206823
:1023F000884209D0394990312068884204D0374951
:10240000A8312068884204D12068006800F00200EA
:1024100002E020680068002050B194F85C0000F0F1
:102420001F0104208840B060606D40F004006065CA
:1024300094F85C0000F01F01102088403840E8B399
:1024400025492068884251D02349183120688842A4
:102450004CD0214930312068884247D01E4948314C
:102460002068884242D01C496031206888423DD0B3
:10247000194978312068884238D01749903120684E
:10248000884233D01449A831206888422ED013499D
:10249000206888422AD0114918312068884225D006
:1024A0000E4930312068884220D00C4948312068DC
:1024B00088421BD009496031206800E04DE0884225
:1024C00014D006497831206888420FD003499031F2
:1024D000206805E05C060024100002401004024061
:1024E000884203D0FE492068884204D120680068F1
:1024F00000F0080003E02068006800F0040060B30A
:1025000094F85C0000F01F0110208840B060206843
:10251000006800F4802080B12068006800F400208A
:1025200028B9206CC8B12046216C884715E0A06C02
:1025300098B12046A16C88470FE02068006800F43D
:10254000807028B92068006820F0080021680860C1
:10255000206C10B12046216C884794F85C0000F094
:102560001F0120208840384000287DD0DD492068A8
:10257000884249D0DB4918312068884244D0D94983
:102580003031206888423FD0D6494831206888429F
:102590003AD0D44960312068884235D0D149783169
:1025A0002068884230D0CF499031206888422BD0B3
:1025B000CC49A8312068884226D0C949A83920686A
:1025C000884221D0C6499039206888421CD0C4492D
:1025D00078392068884217D0C1496039206888421C
:1025E00012D0BF494839206888420DD0BC493039E3
:1025F0002068884208D0BA4918392068884203D038
:10260000B7492068884204D12068006800F01000B3
:1026100003E02068006800F0020028B394F85C0032
:1026200000F01F0120208840B06094F83500042895
:102630002DD12068006820F016002168086020680D
:10264000406920F0800021684861206C08B9A06CC6
:1026500028B12068006820F008002168086094F81C
:102660005C0000F01F0100E03FE03F208840B060C8
:1026700000BF002084F8340000BF012084F835003A
:10268000206D10B12046216D8847BDE8F88F206885
:10269000006800F4802080B12068006800F4002009
:1026A00028B9606C08B32046616C88471DE0E06B78
:1026B000D8B12046E16B884717E02068006800F435
:1026C000807068B92068006820F0100021680860F8
:1026D00000BF002084F8340000BF012084F83500DA
:1026E000E06B10B12046E16B8847606D00287DD01B
:1026F000606D00F00100E8B3042084F835007949EA
:10270000206888424BD0774918312068884246D0EB
:10271000744930312068884241D07249483120687C
:1027200088423CD06F4960312068884237D06D497B
:1027300078312068884232D06A49903120688842D6
:102740002DD06849A8312068884228D06449A8392A
:102750002068884223D062499039206888421ED080
:102760005F4978392068884219D05D49603920680E
:10277000884200E041E012D0594948392068884237
:102780000DD0574930392068884208D0544918394B
:102790002068884203D052492068884206D12068C8
:1027A000006820F001002168086005E020680068EA
:1027B00020F001002168086000BF0098401C0090D4
:1027C000504500D905E02068006800F001000028AD
:1027D000F3D100BF00BF002084F8340000BF2068A0
:1027E000006800F0010028B1032000E00BE084F84D
:1027F000350002E0012084F83500E06C002802D0AA
:102800002046E16C8847D9E137492068884222D0C8
:1028100035491431206888421DD033492831206859
:10282000884218D030493C312068884213D02E4964
:102830005031206888420ED02B496431206888428C
:1028400009D0294978312068884204D026498C3142
:102850002068884201D1012000E000200028D2D069
:102860002068056894F85C0000F01F01042088408F
:1028700000EA0900D0B305F00400B8B394F85C0096
:1028800000F01F0104208840C8F8040005F400404F
:1028900080B105F4803030B9A06C0028B3D0204658
:1028A000A16C88478AE1206C0028ACD02046216CBE
:1028B000884783E105F02000F0BB0A492068884280
:1028C00052D008491831206888424DD0054930312E
:1028D0002068884248D0034948312068884206E091
:1028E000B804024010000240085402584FE03BD0A8
:1028F000B3492068884237D0B149183120688842EE
:1029000032D0AF493031206888422DD0AC494831AF
:102910002068884228D0AB492068884224D0A94941
:102920001831206888421FD0A6493031206888427B
:102930001AD0A449483100E023E02068884213D02F
:10294000A0496031206888420ED09E4978312068C5
:10295000884209D09B4990312068884204D0994927
:10296000A8312068884206D12068006820F008005D
:102970002168086005E02068006820F004002168F4
:102980000860206C10B32046216C884716E194F84B
:102990005C0000F01F010220884000EA0900E8B353
:1029A00005F00200D0B394F85C0000F01F01022093
:1029B0008840C8F8040005F4004070B105F4803088
:1029C00028B9606C10B12046616C8847F6E0E06B76
:1029D000F0B32046E16B8847F0E005F02000C0BB73
:1029E00077496039206888424DD075494839206858
:1029F000884248D0724930392068884243D07049B3
:102A00001839206888423ED06D49206888423AD003
:102A10006B4918312068884235D000E04EE06849A3
:102A20003031206888422ED065494831206888427C
:102A300029D064492068884225D06249183120682D
:102A4000884220D05F493031206888421BD001E0A5
:102A50006EE02DE05B4948312068884213D0594927
:102A60006031206888420ED056497831206888420B
:102A700009D0544990312068884204D05149A83186
:102A80002068884206D12068006820F01400216880
:102A9000086005E02068006820F00A0021680860EE
:102AA00000BF002084F8340000BF012084F8350006
:102AB000E06BE8B32046E16B88477FE094F85C0068
:102AC00000F01F010820884000EA090080B305F0EB
:102AD000080068B33A496039206888424AD03849CA
:102AE00048392068884245D03549303920688842C5
:102AF00040D033491839206888423BD0304920689B
:102B0000884237D02E4918312068884232D02C496B
:102B10003031206888422DD02949483120688842C8
:102B200028D028492068884224D02649183100E05E
:102B300044E0206888421DD0224930312068884214
:102B400018D0204948312068884213D01D4960318F
:102B5000206888420ED01B4978312068884209D00D
:102B6000184990312068884204D01649A83120685D
:102B7000884206D12068006820F01C0021680860A7
:102B800005E02068006820F00E002168086094F8D5
:102B90005C0000F01F0101208840C8F804000120FB
:102BA000606500BF002084F8340000BF012084F875
:102BB0003500E06C10B12046E16C884700BF64E549
:102BC00070000240100402402DE9F041044601F07B
:102BD00079FC804614B90120BDE8F081FE492068E7
:102BE000884249D0FC4918312068884244D0FA49CB
:102BF0003031206888423FD0F74948312068884208
:102C00003AD0F54960312068884235D0F2497831B0
:102C10002068884230D0F0499031206888422BD01B
:102C2000ED49A8312068884226D0EC4920688842C6
:102C300022D0EA491831206888421DD0E749303156
:102C40002068884218D0E54948312068884213D06E
:102C5000E2496031206888420ED0E049783120682E
:102C6000884209D0DD4990312068884204D0DB4990
:102C7000A8312068884201D1012000E0002000280E
:102C800073D0606A00B100BF00BF002084F8340038
:102C900000BF022084F83500CF492068884249D01F
:102CA000CD4918312068884244D0CB493031206862
:102CB00088423FD0C8494831206888423AD0C64946
:102CC00060312068884235D0C34978312068884215
:102CD00030D0C1499031206888422BD0BE49A831FC
:102CE0002068884226D0BD492068884222D0BB494E
:102CF0001831206888421DD0B84930312068884298
:102D000018D0B64948312068884213D0B3496031A1
:102D1000206888420ED0B14978312068884209D0B5
:102D2000AE4990312068884204D0AC49A83120686F
:102D3000884206D12068006820F001002168086000
:102D400005E02068006820F00100216808600DE0BF
:102D500001F0B8FBA0EB0800052807D9202060652A
:102D6000032084F83500012036E769E02068006818
:102D700000F001000028EBD1206805689848054064
:102D8000D4E9020108432169084361690843A16944
:102D90000843E1690843216A08430543606A04283F
:102DA00003D1D4E90B01084305436068292802D305
:102DB00060682E2817D960683F2802D360684228CF
:102DC00011D96068472802D3606848280BD9606829
:102DD0004F2802D36068522805D96068742804D34C
:102DE0006068772801D8012000E0002008B145F490
:102DF0008015206805602068456925F00705606A30
:102E00000543606A04280DD1A06A0543E06A48B111
:102E10002046FEF785F928B140206065012084F83E
:102E20003500D9E6206845612046FEF755F806468C
:102E300094F85C0000F01F013F208840B0609EE0E5
:102E400068492068884222D0664914312068884247
:102E50001DD0644928312068884218D061493C312E
:102E60002068884213D05F495031206888420ED0D4
:102E70005C4964312068884209D05A497831206819
:102E8000884204D057498C312068884201D1012002
:102E900000E00020E0B353492068884222D0514925
:102EA0001431206888421DD04E492831206888425C
:102EB00018D04C493C312068884213D049495031E0
:102EC000206888420ED0474964312068884209D082
:102ED000444978312068884204D042498C312068C6
:102EE000884201D1012000E0002000B100BF00BFF6
:102EF000002084F8340000BF022084F835002068E8
:102F0000056839480540A068402802D1102106E034
:102F10002EE0A068802801D1C10100E00021E06816
:102F200041EAD001206941EAD001606941EAD0015B
:102F3000A06941EAD001E06941EAD001206A41EA92
:102F4000101005432068056026492068401A1421A6
:102F5000B0FBF1F08000E0652046FDF7BDFF0746BD
:102F600094F85C0000F01F0101208840786006E0C2
:102F700040206065032084F8350001202CE61649C6
:102F8000206888427AD0144918312068884275D068
:102F9000114930312068884270D00F49483120688B
:102FA00088426BD00C4960312068884266D00A495B
:102FB00078312068884261D0074990312068884282
:102FC0005CD00549A8312068884257D00349206861
:102FD000884253D0014909E0100002401004024029
:102FE0003F8010FE085402580F00FEFF1831206881
:102FF000884243D03749206888423FD0354918314C
:10300000206888423AD0334930312068884235D030
:10301000304948312068884230D02E4960312068DC
:1030200088422BD02B4978312068884226D02A4903
:103030002068884222D028491431206888421DD057
:10304000254928312068884218D023493C3120681E
:10305000884213D020495031206888420ED01E4942
:1030600064312068884209D01B4978312068884241
:1030700004D019498C312068884201D1012000E038
:10308000002000B32046FDF79DFFA068802801D1F5
:10309000002060602079216E0860D4E91910486032
:1030A000606860B16068082809D82046FDF7ECFF29
:1030B0000020E16E0860D4E91C10486003E00020A5
:1030C000E0662067606700206065012084F83500B5
:1030D000002081E540040240085402582DE9F041E7
:1030E00004460D4616461F464FF0000814B901204D
:1030F000BDE8F08100BF94F83400012801D102201E
:10310000F6E7012084F8340000BF94F83500012868
:103110007ED1022084F8350000206065E4492068F3
:10312000884249D0E24918312068884244D0E049B9
:103130003031206888423FD0DD49483120688842DC
:103140003AD0DB4960312068884235D0D84978319F
:103150002068884230D0D6499031206888422BD0F0
:10316000D349A8312068884226D0D24920688842B5
:1031700022D0D0491831206888421DD0CD49303145
:103180002068884218D0CB4948312068884213D043
:10319000C8496031206888420ED0C649783120681D
:1031A000884209D0C34990312068884204D0C1497F
:1031B000A8312068884206D12068006820F001000C
:1031C0002168086005E02068006820F0010021689F
:1031D00008603B46324629462046FDF7F9FFB449D0
:1031E000206888424BD0B24918312068884246D0C6
:1031F000AF4930312068884241D0AD49483120681C
:1032000088423CD0AA4960312068884237D000E02B
:1032100042E1A74978312068884230D0A4499031F2
:10322000206888422BD0A249A8312068884226D045
:10323000A0492068884222D09E49183120688842DF
:103240001DD09C4930312068884218D099494831B6
:103250002068884213D097496031206888420ED098
:10326000944978312068884209D092499031206889
:10327000884204D08F49A8312068884201D10120BA
:1032800000E0002080B12068006820F01E0040F0BF
:10329000160021680860206CB0B12068006840F01A
:1032A0000800216808600FE02068006820F00E0028
:1032B00040F00A0021680860206C28B1206800688E
:1032C00040F004002168086079492068884270D085
:1032D00077491831206888426BD0754930312068B1
:1032E000884266D0724948312068884261D070496E
:1032F0006031206888425CD06D497831206888420E
:1033000057D06B4990312068884252D06849A83123
:10331000206888424DD067492068884249D0654975
:1033200018312068884244D0624930312068884290
:103330003FD060494831206888423AD05D496031C9
:103340002068884235D05B4978312068884230D087
:1033500058499031206888422BD05649A8312068BE
:10336000884226D054492068884222D052491431DC
:10337000206888421DD0504928312068884218D0E2
:103380004D493C312068884213D04B495031206868
:1033900088420ED0484964312068884209D04649A5
:1033A00078312068884204D043498C3120688842B3
:1033B00001D1012000E0002090B1206E006800F4EF
:1033C000803028B1206E006840F48070216E086063
:1033D000E06E28B1E06E006840F48070E16E086035
:1033E00033492068884249D03149183120688842E1
:1033F00044D02F493031206888423FD02C49483191
:10340000206888423AD02A4960312068884235D005
:10341000274978312068884230D02549903120688A
:1034200088422BD02249A8312068884226D02149E1
:103430002068884222D01F491831206888421DD058
:103440001C4930312068884218D01A494831206818
:10345000884213D017496031206888420ED0154940
:1034600078312068884209D012499031206888421A
:1034700004D01049A8312068884206D1206800682D
:1034800040F001002168086010E02068006840F00A
:1034900001002168086009E000BF002084F83400C2
:1034A00000BF4FF4006060654FF0010840461FE622
:1034B00010000240100402400854025870B504463F
:1034C00001F000F806462546681C10B10448007853
:1034D000054400BF00F0F6FF801BA842FAD370BD80
:1034E0006C06002430B5034693F89840012C01D0B7
:1034F000022C3ED11868806D084030B91868C06D44
:1035000040F001001D68E8650EE01868806D084015
:10351000884206D11868C06D40F002001D68E86559
:1035200002E003201D68E86501F4007030B11868FE
:10353000D0F8E00010431D68C5F8E00001F4806099
:1035400030B11868D0F8E40010431D68C5F8E400F5
:1035500000BF1868406D0B4D0D4028431D6868651D
:103560000948006840EA9170074D286000BF0020BC
:1035700030BDD3F89C0040F00200C3F89C0001204D
:10358000F6E70000FFFFCF3F14A800402DE9F0410F
:1035900004460E461746706800B900E000BF94F874
:1035A0009800022832D12068D0F8C00000F07C508A
:1035B00040B9D4F89C0040F02000C4F89C000120E1
:1035C000BDE8F0812068D0F8C40000F4001038B1E4
:1035D000D4F89C0040F40070C4F89C000120EFE790
:1035E0002068D0F8C400C0F304452B463A46314663
:1035F0002046FEF753F80120A8402168C1F8D0000A
:103600000120A840C4F894000020D9E7D4F89C0019
:1036100040F00800C4F89C000120D1E77047F0B5E5
:10362000024692F89860012E01D0022E43D1C8685C
:10363000072800D100BF086818BBC868072800D059
:1036400000BFC86807280BD1088A4FF0605747EAC7
:103650000040CF6940EA07208F6940EA07040AE08A
:10366000087A80070F7B40EAC7600F8A40EA07406C
:103670004F6940EA0704D76E486807EB80031C6077
:1036800017E0C868072800D000BF0F7B086940EA30
:103690004774C868072801D18D6903E00F7A48692B
:1036A00040EA8775176F486807EBC0031C601B1D55
:1036B0001D600020F0BDD2F89C0040F00200C2F86E
:1036C0009C000120F6E770B50446049D94F898002C
:1036D00001280AD1080140EA820040EA4300284359
:1036E0002668C6F88000002070BDD4F89C0040F029
:1036F0000400C4F89C000120F6E770477047000002
:103700002DE9F04304460D469C46002394F898802A
:10371000B8F1020F74D1402D38D12068D0F8A00044
:1037200000F4FE0040B9D4F89C0040F02000C4F83A
:103730009C000120BDE8F0832068D0F8A40000F0D0
:103740007F0038B9D4F89C0040F48070C4F89C0025
:103750000120EFE72068D0F8A400C0F3006040B17A
:103760002068D0F8A0004FF00049B9EBD07F00D11D
:1037700001232068D0F8A400C0F305200344606C46
:103780005843D4F8749009EB80014BE0412D38D1B7
:103790002068D0F8B00000F4FE0038B9D4F89C00DE
:1037A00040F02000C4F89C000120C3E72068D0F856
:1037B000B40000F07F0038B9D4F89C0040F4807069
:1037C000C4F89C000120B5E72068D0F8B400C0F32D
:1037D000006040B12068D0F8B0004FF00049B9EB6C
:1037E000D07F00D101232068D0F8B400C0F30520B9
:1037F0000344E06C5843D4F8789009EB800111E061
:103800006EE0206DA84207D8D4F89C0040F020005C
:10381000C4F89C0001208DE7606D6843D4F87C906B
:1038200009EB8001086800F080405060506820B9C2
:103830000868C0F38A40106003E0086820F0604028
:103840001060086800F000509060086800F00040C8
:103850001061091D088880B2D061086800F47020EA
:10386000D060086800F480105061086800F400100F
:1038700090610868C0F3066010620868C00F50626B
:10388000091D0F46002603E0B85D0CF80600761C03
:10389000DFF85C90D06809EB10400078B042F3D8B4
:1038A000402D03D12068C0F8A83017E0412D03D186
:1038B0002068C0F8B83011E0202D06D20120A840C1
:1038C000D4F80090C9F8980008E005F01F0901201D
:1038D00000FA09F0D4F80090C9F89C00002029E70C
:1038E000D4F89C0040F00800C4F89C00012021E7B7
:1038F000F4A40108704700002DE9F04F89B0044698
:10390000F54800688507F448001D006805EA8075E1
:103910002068006D00F470462068406D0640206805
:10392000006D00F00F072068406D07402068006DB3
:1039300000F0F0082068406D00EA08082068006D7B
:1039400000F071592068406D00EA09092068006D97
:1039500000F0607A2068406D00EA0A0A2068406D35
:1039600000F4807080B12068006D00F4807058B160
:1039700000BF4FF48070216808650020D6490860B8
:1039800000BF2046FFF7B6FF2068406D00F480605E
:10399000D8B12068006D00F48060B0B12068D0F824
:1039A000DC0007902068D0F8E400079908400790F1
:1039B00000BF4FF48060216808650020C649086098
:1039C00000BF2046079900F075FC65B100BFC348F1
:1039D000284021680865A80FBF49086000BF294634
:1039E0002046FFF71BFE66B100BFBC48304021688F
:1039F0000865B00FB849086000BF3146204600F0A6
:103A00005BFC67B100BFB548384021680865B80F56
:103A1000B149086000BF3946204600F0B1FBB8F15B
:103A2000000F0ED000BFAD4808EA0000216808650D
:103A30004FEA9870A849086000BF4146204600F050
:103A4000E1FB2068406D00F4006080B12068006DEB
:103A500000F4006058B100BF4FF4006021680865B1
:103A600000209D49086000BF204600F026FC206829
:103A7000406D00F40070D8B12068006D00F4007053
:103A8000B0B12068D0F8D80008902068D0F8E000E5
:103A900008990840089000BF4FF40070216808653D
:103AA00000208D49086000BF2046089900F003FC03
:103AB0002068406D00F4002080B12068006D00F4A3
:103AC000002058B100BF4FF4002021680865002095
:103AD0008149086000BF204600F050FB2068406D1F
:103AE00000F4803080B12068006D00F4803058B15F
:103AF00000BF4FF4803021680865002076490860D7
:103B000000BF204600F0D5FB2068406D00F4802007
:103B100080B12068006D00F4802058B100BF4FF4E0
:103B200080202168086500206B49086000BF20469E
:103B300000F0BEFB2068406D00F4003098B12068B2
:103B4000006D00F4003070B100BF4FF40030216808
:103B5000086500206049086000BFD4F89C0040F070
:103B60008000C4F89C00BAF1000F0ED000BF5B4883
:103B70000AEA0000216808654FEA9A705649086011
:103B800000BF51462046FFF7B9FDB9F1000F10D034
:103B900000BF524809EA0000216808654FEA9970A1
:103BA0004D49086000BFD4F89C0040EA0900C4F801
:103BB0009C004B49206888427DD16068806800F095
:103BC000030000287ED06068006A00F00F0B606878
:103BD000406A00EA0B0B6068006A00F03000069053
:103BE0006068406A0699084006906068006A00F4C0
:103BF000C07005906068406A05990840059060684B
:103C0000006A00F4FC4004906068406A049908402F
:103C100004906068006A00F4F02003906068406AD5
:103C2000039908400390BBF1000F06D06068C0F80C
:103C300020B05946204600F038FB069830B106986F
:103C4000616808622046069900F031FB6068406AAE
:103C500000F04000A8B16068006A00F0400080B148
:103C60006068C06B000C02906068C06B00F03F00A1
:103C700001904020616808622046DDE9012100F0E2
:103C800015FB059830B105986168086220460599D2
:103C900000F00AFB049840B1049861680862D4F807
:103CA0009C0004990843C4F89C00039818B1039839
:103CB0006168086200E005E0D4F89C0003990843BD
:103CC000C4F89C00D4F89C0010B12046FFF715FD05
:103CD00009B0BDE8F08F000010A80040FFFFCF3F03
:103CE00000A0004070B594B004464C22B34901A82E
:103CF000FCF79BFB14B9012014B070BDB0492068DB
:103D0000884203D1206800F580706060A068B0F53B
:103D1000407F00D100BF206C00B100BFA06C00B19B
:103D200000BF206D00B100BF206E00B100BFD4E91C
:103D30001710084400B100BF94F8980028B900207B
:103D400084F89900204600F03DF92068806920F051
:103D500010002168886100F0B5FB05460EE000F018
:103D6000B1FB401B0A2809D99834606840F0010073
:103D70006060032004F898090120BDE7206880698D
:103D800000F008000828EAD02068806940F00100AF
:103D90002168886100F096FB05460EE000F092FB7A
:103DA000401B0A2809D99834606840F0010060601F
:103DB000032004F8980901209EE72068806900F03C
:103DC00001000028EAD02068806940F002002168E4
:103DD0008861207C012806D12068806920F040009D
:103DE0002168886105E02068806940F04000216812
:103DF0008861607C012806D12068806940F4804099
:103E00002168886105E02068806920F4804021688D
:103E10008861A07C012806D12068806920F4805048
:103E20002168886105E02068806940F4805021683D
:103E300088612068806920F44070A1680843216887
:103E400088612068806920F0A4002168886120686A
:103E5000006920F0100021680861E068012806D19F
:103E60002068806940F004002168886120E0E068F3
:103E7000F0B1E068022815D02068806940F0800029
:103E8000216888612068006940F01000216808619D
:103E9000E06803280CD12068806940F02000216888
:103EA000886105E02068806940F020002168886111
:103EB000207E401E4106E069401E41EA0020216A42
:103EC000491E0843A18A491E40EA01402168C86191
:103ED000A068B0F5407F0FD1A06A401EE16A491E7C
:103EE00040EA0121206B401E41EA0011A08C401ED7
:103EF00041EA00402168C860206E38B12068D0F8DF
:103F0000C000616E08432168C1F8C000D4E91710F1
:103F1000084460B12068D0F8C80020F0070001AA6A
:103F2000A16E52F8211008432168C1F8C800206C26
:103F300060B12068D0F8BC0020F0070001AA616CD5
:103F400052F8211008432168C1F8BC00A06C68B188
:103F50002068D0F8BC0020F0700101AAE06C52F893
:103F6000200041EA00102168C1F8BC00206D68B152
:103F70002068D0F8BC0020F4E06101AA606D52F81E
:103F8000200041EA00202168C1F8BC000C492068EB
:103F9000884205D16068806820F00300616888600D
:103FA000002044F8940FA06001202071943C20462A
:103FB000FDF764FA064630469EE6000004A50108B7
:103FC00000A0004010B586B00446142101A8FCF7FB
:103FD00045FA6349206888423CD162480068401C29
:103FE000604908600846006801280DD100BF5E489E
:103FF000006840F480705C4908600846006800F47E
:104000008070009000BF00BF00BF57480C380068A8
:1040100040F0080054490C3908600846006800F078
:104020000800009000BF00BF032001900220029012
:104030000020039004900920059001A94B4800F04E
:104040003DF900220521132000F0F4FA132000F0BE
:10405000DDFA82E04649206888423DD14148006847
:10406000401C404908600846006801280DD100BF87
:104070003D48006840F480703B490860084600688D
:1040800000F48070009000BF00BF00BF36480C38BD
:10409000006840F0020034490C39086008460068A6
:1040A00000F00200009000BF00BF4FF440500190AC
:1040B000022002900020039004900920059001A99D
:1040C0002C4800F0FBF800220521142000F0B2FA81
:1040D000142000F09BFA40E02749206888423CD138
:1040E00020480068401C1F490860084600680128F5
:1040F0000DD100BF1C48006840F480701A49086068
:104100000846006800F48070009000BF00BF00BF48
:1041100015480C38006840F0080013490C39086055
:104120000846006800F00800009000BF00BF4FF490
:10413000405001900220029000200390049005203E
:10414000059001A9094800F0B9F8002205219F2037
:1041500000F070FA9F2000F059FA06B010BD000080
:1041600000A0004024000024EC440258000C025837
:1041700000A400400004025800D400407047000032
:1041800070B504460D4605F0010058B3164B174AAA
:1041900040212046FFF7B4FA1549206888421CD018
:1041A0001449206888420ED110480068202803D1A5
:1041B0000D480FF06DFD10E00C480B4A01680E48E9
:1041C0000EF08CF809E00D492068884205D10748B7
:1041D000054A01680A480EF081F8002201212046B4
:1041E000FFF780F970BD000044390024F438002442
:1041F00000A0004000A40040083F002400D400407C
:104200002C3F002470B504460D4605F0100030B375
:10421000134B144A41212046FFF772FA12492068D5
:10422000884204D10E4908780DF0FCFD12E00F49D8
:104230002068884205D10B49086809490CF072FFD3
:1042400008E00B492068884204D1064908680449FF
:104250000CF068FF002210212046FFF743F970BDE3
:10426000843900241C39002400A0004000A4004030
:1042700000D40040014691F8980001280CD102209A
:1042800081F898000868806920F001000A68906150
:104290000020C1F89C007047D1F89C0040F0040059
:1042A000C1F89C000120F6E77047704770477047DF
:1042B000704770477047704770477047F8B50246BF
:1042C0000023714DD9E001279F400E6806EA0704DC
:1042D000002C71D04E68012E08D04E68022E05D0F9
:1042E0004E68112E02D04E68122E13D190685F00D6
:1042F0000326BE40B0435F00CE68BE4030439060AE
:10430000506801269E40B0430E79C6F300169E40C9
:1043100030435060D0685F000326BE40B0435F006A
:104320008E68BE403043D0604E68022E02D04E6888
:10433000122E13D1DF0802F1200656F827005E077F
:10434000F70E0F26BE40B0435F07FF0E0E69BE405A
:104350003043DF0802F1200646F8270010685F00AE
:104360000326BE40B0430E7906F003065F00BE4050
:10437000304310604E6806F08056B6F1805F7BD106
:1043800000BF424E366846F00206404F3E603E4651
:10439000366806F00206009600BF00BF3C4E9F083C
:1043A00056F827009E07370F0F26BE40B043394E00
:1043B000B24202D1002629E05EE0374EB24201D17E
:1043C000012623E0354EB24201D102261EE0344ED2
:1043D000B24201D1032619E0324EB24201D1042685
:1043E00014E0314EB24201D105260FE02F4EB24209
:1043F00001D106260AE02E4EB24201D1072605E081
:104400002C4EB24201D1092600E00A269F073F0F39
:10441000BE4030431E4E9F0846F827002868A04340
:104420004E6806F48036B6F5803F00D12043286000
:104430006868A0434E6806F40036B6F5003F00D128
:10444000204368604FF0B0463068A0434E6806F4E1
:104450008016B6F5801F00D120434FF0B046306083
:104460007068A0434E6806F40016B6F5001F00D130
:1044700020434FF0B04670605B1C0E68DE40002E9B
:104480007FF421AFF8BD000080000058F4440258CA
:10449000080400580000025800040258000802589E
:1044A000000C02580010025800140258001802585C
:1044B000001C0258002402580AB1816101E00B047B
:1044C000836170470148006870470000640600245B
:1044D00003480068034909780844014908607047A7
:1044E000640600246C06002410B5032000F0E0F8F8
:1044F00002F030F910490968C1F303210F4A515CF9
:1045000001F01F0120FA01F40B48006800F00F00D1
:104510001146085C00F01F0024FA00F0084908600A
:1045200008480460002000F00FF808B1012010BD19
:1045300000F054F80020FAE718440258DCA40108FF
:10454000600600245C06002470B58AB00446102C76
:104550000AD200222146192000F06CF8192000F040
:1045600055F81948046002E001200AB070BD00BF90
:104570001648006840F001001449086008460068C9
:1045800000F00100009000BF00BF01A902A802F0E6
:1045900061F802F0CDF845000D48B5FBF0F0461E7D
:1045A0000C480D49086040F2E7310B48C160466095
:1045B00000210161816003F0F3F918B9064803F0A6
:1045C00047FAD2E70120D0E768060024F0440258F9
:1045D00040420F0000000140501A002408B500BFFF
:1045E0000948006840F00200074908600846006872
:1045F00000F00200009000BF00BF00220F21901EBB
:1046000000F018F808BD0000F444025801460846BE
:1046100000280DDB00BF00BF00F01F0301229A40FD
:1046200043099B0003F1E023C3F8002100BF00BF52
:1046300000BF70472DE9F05F80460D46164608F032
:104640007FFF074639462A46334601F00700C0F18E
:10465000070ABAF1040F02D94FF0040A01E0C0F1D1
:10466000070AD14600F1040ABAF1070F02D24FF04F
:10467000000A01E0A0F1030AD4464FF0010A0AFA49
:1046800009FAAAF1010A0AEA020A0AFA0CFA4FF038
:10469000010B0BFA0CFBABF1010B0BEA030B4AEA23
:1046A0000B042146404608F053FFBDE8F09F000090
:1046B00000BF00F00702064B19684FF6FF031940D0
:1046C000044B0B4343EA0221014B196000BF7047C2
:1046D0000CED00E00000FA0501460A680120C1F86F
:1046E000FC03002081F8F403906940F000609061C1
:1046F000506D024B184350650020704703000010B6
:10470000704702461068416200207047F0B50346CA
:1047100015461868446A21B944EA05401E68B0622B
:1047200019E01868806A04EB1044002208E0186859
:1047300000F5827050F8220004EB1044501CC2B205
:10474000481E9042F3D844EA0547186800F5827085
:104750004E1E40F826700020F0BD10B50446D4F877
:10476000040407F0CEFA10BD70B504460D46C5EB43
:10477000C50304F13C0101EB8301CA682946D4F862
:10478000040407F006FA70BD70B504460D46C5EB8B
:10479000C50304F5FE7101EB8301CA682946D4F80C
:1047A000040407F067FA70BD10B50446D4F8040499
:1047B00007F0AAFA10BD70B504460E4606F0800058
:1047C00080280AD106F00F00C0EBC00104F13C00C4
:1047D00000EB81050120687009E006F00F00C0EBD6
:1047E000C00104F5FE7000EB81050020687006F042
:1047F0000F00287000BF94F8BC03012801D10220EB
:1048000070BD012084F8BC0300BF2946206807F072
:10481000D7FF00BF002084F8BC0300BF00BFEFE754
:1048200070B504460E4606F00F006168884201D953
:10483000012070BD06F0800080280AD106F00F002C
:10484000C0EBC00104F13C0000EB81050120687061
:1048500009E006F00F00C0EBC00104F5FE7000EBAC
:104860008105002068700020A87006F00F002870F5
:1048700000BF94F8BC03012801D10220D9E7012030
:1048800084F8BC0300BF2946206808F07BFA00BF0B
:10489000002084F8BC0300BF00BFCAE7024601F055
:1048A0000F00C0EBC00302F5FE7000EB83008069CF
:1048B00070472DE9F04705460E4690461F464FF0DB
:1048C000000906F0800080280AD106F00F00C0EB36
:1048D000C00105F13C0000EB81040120607009E09B
:1048E00006F00F00C0EBC00105F5FE7000EB81047F
:1048F0000020607006F00F002070C4F80880E77098
:10490000607808B12078E080022F01D1002020716A
:1049100000BF95F8BC03012802D10220BDE8F08752
:10492000012085F8BC0300BF2146286807F05AFE25
:1049300000BF002085F8BC0300BF4846EEE72DE924
:10494000F04104460E461746984606F00F00C0EBAD
:10495000C00104F5FE7000EB8105EF60C5F814801E
:104960000020A861687006F00F00287020690128F7
:1049700000D12F6106F00F0028B9227C294620685B
:1049800008F0DCF804E0227C2946206808F08EFA62
:104990000020BDE8F08170B504460D4605F00F001B
:1049A0006168884201D9012070BD05F0800080282F
:1049B0000AD105F00F00C0EBC00104F13C0000EB90
:1049C00081060120707007E0C5EBC50104F5FE709B
:1049D00000EB8106002070700120B07005F00F0020
:1049E000307000BF94F8BC03012801D10220DBE73E
:1049F000012084F8BC0300BF3146206808F009FAA2
:104A000005F00F0028B9217C04F57172206808F0C8
:104A100081F900BF002084F8BC0300BF00BFC3E7DA
:104A20002DE9F04104460E461746984606F00F0061
:104A3000C0EBC00104F13C0000EB8105EF60C5F85C
:104A400014800020A8610120687006F00F00287013
:104A50002069012800D12F6106F00F0028B9227CBF
:104A60002946206808F06AF804E0227C294620687C
:104A700008F01CFA0020BDE8F0812DE9FE4F044645
:104A800020680290029D206808F0FBFB00287DD181
:104A9000206808F035FC08B9BDE8FE8F206808F0F2
:104AA0002FFC00F00200022805D12068406900F0C8
:104AB000020021684861206808F022FC00F0100024
:104AC000102846D12068806920F010002168886194
:104AD0000298D0F8209009F00F00C0EBC00104F557
:104AE000FE7000EB810BC9F3434002281AD147F650
:104AF000F07009EA000030B3C9F30A12DBF80C10B9
:104B0000029808F002FCC9F30A11DBF80C00084413
:104B1000CBF80C00C9F30A11DBF818000844CBF8F5
:104B2000180010E0C9F3434006280CD1082204F510
:104B30007171029808F0E9FBC9F30A11DBF818005B
:104B40000844CBF818002068806940F01000216804
:104B50008861206808F0D4FB00F40020B0F5002F35
:104B600052D10026206808F09BFB824649E00AF0FB
:104B70000100E8B3F1B2206808F0B5FB804608F008
:104B8000010058B1012105F5306000E043E200EB7F
:104B9000461081603146204604F048FE08F00800C7
:104BA000082809D1082105F5306000EB4610816026
:104BB0003146204604F008FE08F01000102805D108
:104BC000102105F5306000EB4610816008F02000F0
:104BD000202805D1202105F5306000EB46108160CA
:104BE00008F40050B0F5005F08D14FF4005100E028
:104BF00004E005F5306000EB46108160761C4FEA5A
:104C00005A0ABAF1000FB2D1206808F079FB00F41B
:104C10008020B0F5802F7ED1206808F037FB8246D7
:104C2000002683E00AF0010000287CD0F1B2206861
:104C300008F040FB804608F00100F0B306F00F01D9
:104C400001208840019040F634004159019821EA42
:104C5000000040F634014851012105F5106000EBD9
:104C6000461081602069012824D1C6EBC60104F1F9
:104C70003C0000EB8100C6EBC602C16804F13C00B9
:104C800000EB820080680144C6EBC60204F13C00E0
:104C900000EB8200C1606EB9C6EBC60104F13C00B6
:104CA00000EB8100406928B904F571720121206888
:104CB00008F030F8F1B2204600E001E0FFF754FDC3
:104CC00008F00800082805D1082105F5106000EB60
:104CD0004610816008F01000102805D1102105F55C
:104CE000106000EB4610816008F04000402805D1BC
:104CF000402105F5106000EB4610816008F00200CD
:104D0000022805D1022105F5106000EB46108160F4
:104D100008F0800001E00DE005E0802803D1314675
:104D2000204604F041FE761C4FEA5A0ABAF1000F01
:104D30007FF478AF206808F0E3FA00F00040B0F1AB
:104D4000004F1CD140F60400405920F0010140F60C
:104D50000400415194F8F403012807D1002084F89D
:104D6000F40300212046FFF7CBFC02E0204600F0D0
:104D70007DFA2068406900F00040216848612068A1
:104D800008F0BEFA00F40060B0F5006F0ED140F6F6
:104D90000800405900F0010010B1204600F0BEFAB2
:104DA0002068406900F4006021684861206808F0CC
:104DB000A7FA00F00060B0F1006F19D120684069D7
:104DC00000F000602168486194F8F40368B901209C
:104DD00084F8F4032068406DC0F38300C4F8F8033E
:104DE00001212046FFF78CFC02E0204600F096FAF5
:104DF000206808F085FA00F48050B0F5805F7DD11E
:104E000040F60400405920F0010140F604004151F1
:104E10001021206808F00AFA00273EE04FF67F31A3
:104E200005F5106000EB4710816005F5106000EBA0
:104E30004710006820F4001105F5106000EB4710E2
:104E4000016005F5106000EB4710006840F000615C
:104E500005F5106000EB471001604FF67F3105F556
:104E6000306000EB4710816005F5306000EB4710C3
:104E7000006820F4001105F5306000EB4710016078
:104E800005F5306000EB4710006840F0006105F563
:104E9000306000EB471001607F1C6068B842BDD8ED
:104EA00040F61C00405940F0011140F61C004151F1
:104EB000206B70B1D5F8840840F00B01C5F8841858
:104EC00040F64400405940F00B0140F64400415187
:104ED0000FE040F61400405942F22B01084340F61F
:104EE00014014851081F405940F00B014FF4016074
:104EF0004151D5F8000820F4FE6000E00DE0C5F84F
:104F00000008217C04F57172206807F003FF206817
:104F1000406900F4805021684861206808F0F0F989
:104F200000F40050B0F5005F17D1206807F0C2FB15
:104F3000206808F093F9E06001F0C2FB0090227B4A
:104F40002068009908F04AFA204600F077F92068B6
:104F5000406900F4005021684861206808F0D0F9E9
:104F600000F00800082808D1204600F086F92068E3
:104F7000406900F0080021684861206808F0C0F925
:104F800000F48010B0F5801F0AD10026314620467B
:104F900000F043F82068406900F4801021684861FF
:104FA000206808F0ADF900F40010B0F5001F0AD138
:104FB00000263146204600F039F82068406900F4A8
:104FC000001021684861206808F09AF900F08040DC
:104FD000B0F1804F08D12046FFF7BFFB2068406941
:104FE00000F0804021684861206808F089F900F0ED
:104FF000040004280FD12068D0F8049009F00400C0
:10500000042802D12046FFF7CFFB2068406840EA21
:1050100009002168486000BF3EE570B504460D46B2
:105020002946D4F8040406F0DDFE70BD70B50446D0
:105030000D462946D4F8040406F0ECFE70BD70B5A8
:105040008AB0044614B901200AB070BD266894F8ED
:10505000BD0328B9002084F8BC03204600F0A8F85E
:10506000032084F8BD03F06B00F4807008B90021C0
:105070002161206807F05AFD282204F110016846DA
:10508000FBF7D3F994E80F0007F028FB20B10220CA
:1050900084F8BD030120D7E70021206808F065F9F6
:1050A000002531E00121C5EBC50204F13C0000EB15
:1050B00082004170C5EBC50104F13C0000F82150AD
:1050C000C5EBC50100EB8100C5800021C5EBC50221
:1050D00004F13C0000EB8200C170C5EBC50204F195
:1050E0003C0000EB82008160C5EBC50204F13C008E
:1050F00000EB8200C160C5EBC50204F13C0000EB8F
:1051000082004161681CC5B26068A842CAD8002507
:105110002AE00021C5EBC50204F5FE7000EB820019
:105120004170C5EBC50104F5FE7000F82150002167
:10513000C5EBC50200EB8200C170C5EBC50204F5EA
:10514000FE7000EB82008160C5EBC50204F5FE70C5
:1051500000EB8200C160C5EBC50204F5FE7000EBF8
:1051600082004161681CC5B26068A842D1D828227B
:1051700004F110016846FBF758F994E80F0007F0B6
:10518000E9FB20B1022084F8BD0301205CE7002088
:1051900084F83800012084F8BD03606A012802D138
:1051A0002046FFF799FA206807F0C2FB00204BE782
:1051B00010B5AEB00446B42101A8FBF74FF91D4964
:1051C0002068884233D14FF4802001904FF4401082
:1051D000219001A800F038FB08B1FCF734F900F089
:1051E000E7F800BF1448006840F0007012490860FA
:1051F0000846006800F00070009000BF00BF002269
:1052000005214A20FFF716FA4A20FFF7FFF900228E
:1052100005214B20FFF70EFA4B20FFF7F7F900228C
:1052200005214D20FFF706FA4D20FFF7EFF92EB0CC
:1052300010BD000000000440D844025870B5044678
:105240000125E06808B9002506E0E068022801D1E0
:10525000012501E0FCF7F7F82946D4F8040406F02C
:1052600078FED4F8040406F01DFE70BD10B50446A7
:10527000D4F8040406F04CFE10BD10B50446D4F872
:10528000040406F050FE10BD70B504460D4600BF84
:1052900094F8BC03012801D1022070BD012084F8DC
:1052A000BC0300BF84F838502946206808F078F81D
:1052B00000BF002084F8BC0300BF00BFEDE710B5BD
:1052C000044604F57171D4F8040406F059FE10BDCB
:1052D00070B50446256800BF94F8BC03012801D1CD
:1052E000022070BD012084F8BC0300BFA06A012821
:1052F00006D1A069012803D0A86B40F48030A863D0
:10530000206807F075FF206807F000FB00BF002051
:1053100084F8BC0300BF00BFE3E7000010B50446FB
:10532000D4F8040406F089FE2068D0F8000E40F09E
:1053300001002168C1F8000E206A28B10348006806
:1053400040F006000149086010BD000010ED00E0CB
:1053500070B5044615480068C0F3800048B913488A
:10536000006800F00700A04201D0012070BD0020BD
:10537000FCE70E48006820F0070020430B49086056
:10538000FFF7A0F8054607E0FFF79CF8401BB0F5D3
:105390007A7F01D90120E9E7044808380068C0F3A2
:1053A00040300028F0D00020E0E700000C48025810
:1053B0000348006840F080700149086070470000B1
:1053C0000C48025810B501F07BF905490968C1F392
:1053D0000211044A515C01F01F01C84010BD0000D9
:1053E00020440258DCA4010870B50146844D2D68A4
:1053F00005F00303824D2D68C5F30530804D2D1D4A
:105400002D68C5F300147E4D14352D68C5F3CC0509
:1054100015FB04F501EE105AB8EE411AF0EE410A00
:1054200000286FD023B1012B4ED0022B6BD16BE043
:10543000734D283D2D68C5F340153DB3704D283D93
:105440002D68C5F3C1066F4D25FA06F201EE102A4C
:10545000F8EE411A01EE100AB8EE411A81EE812AE7
:105460009FED691AC0EE811A654D10352D68C5F3A0
:10547000080501EE105AB8EE411A31EE811AF7EE26
:10548000001A31EE211A22EE010A1CE001EE100A88
:10549000B8EE411ADFED5D1A81EE812A9FED5A1AAE
:1054A000C0EE811A564D10352D68C5F3080501EE82
:1054B000105AB8EE411A31EE811AF7EE001A31EEA9
:1054C000211A22EE010A5BE001EE100AB8EE411A41
:1054D000DFED4F1A81EE812A9FED4B1AC0EE811A43
:1054E000474D10352D68C5F3080501EE105AB8EE8A
:1054F000411A31EE811AF7EE001A31EE211A22EE2E
:10550000010A3DE077E01DE001EE100AB8EE411A15
:105510009FED402AC2EE011A9FED3B1A80EE812AD0
:10552000374D10352D68C5F3080501EE105AB8EE59
:10553000411A32EE011AB7EE002A31EE021A21EEBC
:10554000810A1DE001EE100AB8EE411ADFED301AB3
:1055500081EE812A9FED2C1AC0EE811A284D10355C
:105560002D68C5F3080501EE105AB8EE411A31EE68
:10557000811AF7EE001A31EE211A22EE010A00BF5D
:1055800000BF1F4D10352D68C5F3462501EE105A9A
:10559000B8EE411AF7EE001A31EE211AC0EE011AE8
:1055A000BCEEE11A81ED001A154D10352D68C5F3DA
:1055B000064501EE105AB8EE411AF7EE001A31EE28
:1055C000211AC0EE011ABCEEE11A81ED011A0C4D50
:1055D00010352D68C5F3066501EE105AB8EE411A74
:1055E000F7EE001A31EE211AC0EE011ABCEEE11AF4
:1055F00081ED021A03E000250D604D608D6070BDE5
:10560000284402580090D003000000460024744C47
:105610000024744A0024744B70B50146844D2D68F3
:1056200005F00303824D2D68C5F30550804D2D1DF7
:105630002D68C5F300247E4D1C352D68C5F3CC05BF
:1056400015FB04F501EE105AB8EE411AF0EE410ACE
:1056500000286FD023B1012B4ED0022B6BD16BE011
:10566000734D283D2D68C5F340153DB3704D283D61
:105670002D68C5F3C1066F4D25FA06F201EE102A1A
:10568000F8EE411A01EE100AB8EE411A81EE812AB5
:105690009FED691AC0EE811A654D18352D68C5F366
:1056A000080501EE105AB8EE411A31EE811AF7EEF4
:1056B000001A31EE211A22EE010A1CE001EE100A56
:1056C000B8EE411ADFED5D1A81EE812A9FED5A1A7C
:1056D000C0EE811A564D18352D68C5F3080501EE48
:1056E000105AB8EE411A31EE811AF7EE001A31EE77
:1056F000211A22EE010A5BE001EE100AB8EE411A0F
:10570000DFED4F1A81EE812A9FED4B1AC0EE811A10
:10571000474D18352D68C5F3080501EE105AB8EE4F
:10572000411A31EE811AF7EE001A31EE211A22EEFB
:10573000010A3DE077E01DE001EE100AB8EE411AE3
:105740009FED402AC2EE011A9FED3B1A80EE812A9E
:10575000374D18352D68C5F3080501EE105AB8EE1F
:10576000411A32EE011AB7EE002A31EE021A21EE8A
:10577000810A1DE001EE100AB8EE411ADFED301A81
:1057800081EE812A9FED2C1AC0EE811A284D183522
:105790002D68C5F3080501EE105AB8EE411A31EE36
:1057A000811AF7EE001A31EE211A22EE010A00BF2B
:1057B00000BF1F4D18352D68C5F3462501EE105A60
:1057C000B8EE411AF7EE001A31EE211AC0EE011AB6
:1057D000BCEEE11A81ED001A154D18352D68C5F3A0
:1057E000064501EE105AB8EE411AF7EE001A31EEF6
:1057F000211AC0EE011ABCEEE11A81ED011A0C4D1E
:1058000018352D68C5F3066501EE105AB8EE411A39
:10581000F7EE001A31EE211AC0EE011ABCEEE11AC1
:1058200081ED021A03E000250D604D608D6070BDB2
:10583000284402580090D003000000460024744C15
:105840000024744A0024744B2DE9F04104460025DD
:10585000A846206800F00060B0F1006F30D1206EE3
:1058600048B1B0F5801F0DD0B0F5001F10D0B0F5D5
:10587000401F15D113E0F748006840F40030F549A7
:1058800008600FE00221201D04F00CF9054609E034
:10589000022104F1240004F0B7F9054602E001E01A
:1058A000012500BF00BF55B9EA482430006820F444
:1058B0004010216E0843E7492431086000E0A84603
:1058C000208800F48070B0F5807F2DD1606D0528B0
:1058D0001AD2DFE800F0030A10171800DD4800684C
:1058E00040F40030DB49086010E00021201D04F086
:1058F000D9F805460AE0002104F1240004F084F9F7
:10590000054603E002E001E0012500BF00BF55B9F4
:10591000D0482430006820F00700616D0843CD496D
:105920002431086000E0A846208800F48060B0F5CB
:10593000806F3CD1D4F8A000B0F5C00F23D007DCB5
:1059400068B1B0F5001F11D0B0F5800F1ED113E083
:10595000B0F5000F18D0B0F5200F17D115E0BD48F5
:10596000006840F40030BB49086011E00021201DB0
:1059700004F098F805460BE0002104F1240004F03F
:1059800043F9054604E003E002E001E0012500BF21
:1059900000BF5DB9AF482C30006820F46000D4F837
:1059A000A0100843AB492C31086000E0A8462088CD
:1059B00000F40060B0F5006F3CD1D4F8A400B0F161
:1059C000407F23D007DC68B1B0F1807F11D0B0F107
:1059D000007F1ED113E0B0F1806F18D0B0F1A06F3E
:1059E00017D115E09B48006840F4003099490860E1
:1059F00011E00021201D04F055F805460BE00021C0
:105A000004F1240004F000F9054604E003E002E09C
:105A100001E0012500BF00BF5DB98E482C30006851
:105A200020F0E060D4F8A41008438A492C310860C3
:105A300000E0A846206800F00070B0F1007F27D198
:105A4000A06CA0B1102804D0202809D030280FD194
:105A50000CE08048006840F400307E49086009E0AE
:105A60000221201D04F01EF8054603E002E001E0DB
:105A7000012500BF00BF55B976482030006820F0EE
:105A80003000A16C084373492031086000E0A8464B
:105A9000208800F48050B0F5805F36D1A06DB0F55D
:105AA000005F19D004DC50B1B0F5805F1DD10DE06E
:105AB000B0F5405F17D0B0F5804F16D114E06548BF
:105AC000006840F400306349086010E00021201DA8
:105AD00003F0E8FF05460AE0002104F1240004F089
